{
  "contractName": "Asignatura",
  "abi": [
    {
      "inputs": [
        {
          "internalType": "string",
          "name": "_nombre",
          "type": "string"
        },
        {
          "internalType": "string",
          "name": "_curso",
          "type": "string"
        }
      ],
      "stateMutability": "nonpayable",
      "type": "constructor"
    },
    {
      "inputs": [
        {
          "internalType": "string",
          "name": "dni",
          "type": "string"
        }
      ],
      "name": "DNIDuplicadoError",
      "type": "error"
    },
    {
      "inputs": [
        {
          "internalType": "address",
          "name": "",
          "type": "address"
        },
        {
          "internalType": "uint256",
          "name": "",
          "type": "uint256"
        }
      ],
      "name": "calificaciones",
      "outputs": [
        {
          "internalType": "enum Asignatura.TipoNota",
          "name": "tipo",
          "type": "uint8"
        },
        {
          "internalType": "uint256",
          "name": "calificacion",
          "type": "uint256"
        }
      ],
      "stateMutability": "view",
      "type": "function",
      "constant": true
    },
    {
      "inputs": [],
      "name": "cerrada",
      "outputs": [
        {
          "internalType": "bool",
          "name": "",
          "type": "bool"
        }
      ],
      "stateMutability": "view",
      "type": "function",
      "constant": true
    },
    {
      "inputs": [],
      "name": "coordinador",
      "outputs": [
        {
          "internalType": "address",
          "name": "",
          "type": "address"
        }
      ],
      "stateMutability": "view",
      "type": "function",
      "constant": true
    },
    {
      "inputs": [],
      "name": "curso",
      "outputs": [
        {
          "internalType": "string",
          "name": "",
          "type": "string"
        }
      ],
      "stateMutability": "view",
      "type": "function",
      "constant": true
    },
    {
      "inputs": [
        {
          "internalType": "address",
          "name": "",
          "type": "address"
        }
      ],
      "name": "datosAlumno",
      "outputs": [
        {
          "internalType": "string",
          "name": "nombre",
          "type": "string"
        },
        {
          "internalType": "string",
          "name": "dni",
          "type": "string"
        },
        {
          "internalType": "string",
          "name": "email",
          "type": "string"
        }
      ],
      "stateMutability": "view",
      "type": "function",
      "constant": true
    },
    {
      "inputs": [
        {
          "internalType": "address",
          "name": "",
          "type": "address"
        }
      ],
      "name": "datosProfesor",
      "outputs": [
        {
          "internalType": "string",
          "name": "",
          "type": "string"
        }
      ],
      "stateMutability": "view",
      "type": "function",
      "constant": true
    },
    {
      "inputs": [
        {
          "internalType": "string",
          "name": "",
          "type": "string"
        }
      ],
      "name": "dniUsados",
      "outputs": [
        {
          "internalType": "address",
          "name": "",
          "type": "address"
        }
      ],
      "stateMutability": "view",
      "type": "function",
      "constant": true
    },
    {
      "inputs": [
        {
          "internalType": "uint256",
          "name": "",
          "type": "uint256"
        }
      ],
      "name": "evaluaciones",
      "outputs": [
        {
          "internalType": "string",
          "name": "nombre",
          "type": "string"
        },
        {
          "internalType": "uint256",
          "name": "fecha",
          "type": "uint256"
        },
        {
          "internalType": "uint256",
          "name": "porcentaje",
          "type": "uint256"
        },
        {
          "internalType": "uint256",
          "name": "minimo",
          "type": "uint256"
        }
      ],
      "stateMutability": "view",
      "type": "function",
      "constant": true
    },
    {
      "inputs": [
        {
          "internalType": "uint256",
          "name": "",
          "type": "uint256"
        }
      ],
      "name": "matriculas",
      "outputs": [
        {
          "internalType": "address",
          "name": "",
          "type": "address"
        }
      ],
      "stateMutability": "view",
      "type": "function",
      "constant": true
    },
    {
      "inputs": [],
      "name": "nombre",
      "outputs": [
        {
          "internalType": "string",
          "name": "",
          "type": "string"
        }
      ],
      "stateMutability": "view",
      "type": "function",
      "constant": true
    },
    {
      "inputs": [],
      "name": "owner",
      "outputs": [
        {
          "internalType": "address",
          "name": "",
          "type": "address"
        }
      ],
      "stateMutability": "view",
      "type": "function",
      "constant": true
    },
    {
      "inputs": [
        {
          "internalType": "uint256",
          "name": "",
          "type": "uint256"
        }
      ],
      "name": "profesores",
      "outputs": [
        {
          "internalType": "address",
          "name": "",
          "type": "address"
        }
      ],
      "stateMutability": "view",
      "type": "function",
      "constant": true
    },
    {
      "inputs": [],
      "name": "version",
      "outputs": [
        {
          "internalType": "string",
          "name": "",
          "type": "string"
        }
      ],
      "stateMutability": "view",
      "type": "function",
      "constant": true
    },
    {
      "stateMutability": "payable",
      "type": "receive",
      "payable": true
    },
    {
      "inputs": [
        {
          "internalType": "address",
          "name": "addr",
          "type": "address"
        }
      ],
      "name": "setCoordinador",
      "outputs": [],
      "stateMutability": "nonpayable",
      "type": "function"
    },
    {
      "inputs": [],
      "name": "cerrar",
      "outputs": [],
      "stateMutability": "nonpayable",
      "type": "function"
    },
    {
      "inputs": [
        {
          "internalType": "address",
          "name": "_addr",
          "type": "address"
        },
        {
          "internalType": "string",
          "name": "_nombre",
          "type": "string"
        }
      ],
      "name": "addProfesor",
      "outputs": [],
      "stateMutability": "nonpayable",
      "type": "function"
    },
    {
      "inputs": [],
      "name": "profesoresLength",
      "outputs": [
        {
          "internalType": "uint256",
          "name": "",
          "type": "uint256"
        }
      ],
      "stateMutability": "view",
      "type": "function",
      "constant": true
    },
    {
      "inputs": [
        {
          "internalType": "string",
          "name": "_nombre",
          "type": "string"
        },
        {
          "internalType": "string",
          "name": "_dni",
          "type": "string"
        },
        {
          "internalType": "string",
          "name": "_email",
          "type": "string"
        }
      ],
      "name": "automatricula",
      "outputs": [],
      "stateMutability": "nonpayable",
      "type": "function"
    },
    {
      "inputs": [
        {
          "internalType": "address",
          "name": "_addr",
          "type": "address"
        },
        {
          "internalType": "string",
          "name": "_nombre",
          "type": "string"
        },
        {
          "internalType": "string",
          "name": "_dni",
          "type": "string"
        },
        {
          "internalType": "string",
          "name": "_email",
          "type": "string"
        }
      ],
      "name": "matricular",
      "outputs": [],
      "stateMutability": "nonpayable",
      "type": "function"
    },
    {
      "inputs": [],
      "name": "matriculasLength",
      "outputs": [
        {
          "internalType": "uint256",
          "name": "",
          "type": "uint256"
        }
      ],
      "stateMutability": "view",
      "type": "function",
      "constant": true
    },
    {
      "inputs": [],
      "name": "quienSoy",
      "outputs": [
        {
          "internalType": "string",
          "name": "_nombre",
          "type": "string"
        },
        {
          "internalType": "string",
          "name": "_dni",
          "type": "string"
        },
        {
          "internalType": "string",
          "name": "_email",
          "type": "string"
        }
      ],
      "stateMutability": "view",
      "type": "function",
      "constant": true
    },
    {
      "inputs": [
        {
          "internalType": "string",
          "name": "_nombre",
          "type": "string"
        },
        {
          "internalType": "uint256",
          "name": "_fecha",
          "type": "uint256"
        },
        {
          "internalType": "uint256",
          "name": "_porcentaje",
          "type": "uint256"
        },
        {
          "internalType": "uint256",
          "name": "_minimo",
          "type": "uint256"
        }
      ],
      "name": "creaEvaluacion",
      "outputs": [
        {
          "internalType": "uint256",
          "name": "",
          "type": "uint256"
        }
      ],
      "stateMutability": "nonpayable",
      "type": "function"
    },
    {
      "inputs": [
        {
          "internalType": "uint256",
          "name": "_index",
          "type": "uint256"
        },
        {
          "internalType": "string",
          "name": "_nombre",
          "type": "string"
        },
        {
          "internalType": "uint256",
          "name": "_fecha",
          "type": "uint256"
        },
        {
          "internalType": "uint256",
          "name": "_porcentaje",
          "type": "uint256"
        },
        {
          "internalType": "uint256",
          "name": "_minimo",
          "type": "uint256"
        }
      ],
      "name": "editaEvaluacion",
      "outputs": [
        {
          "internalType": "uint256",
          "name": "",
          "type": "uint256"
        }
      ],
      "stateMutability": "nonpayable",
      "type": "function"
    },
    {
      "inputs": [],
      "name": "evaluacionesLength",
      "outputs": [
        {
          "internalType": "uint256",
          "name": "",
          "type": "uint256"
        }
      ],
      "stateMutability": "view",
      "type": "function",
      "constant": true
    },
    {
      "inputs": [
        {
          "internalType": "address",
          "name": "alumno",
          "type": "address"
        },
        {
          "internalType": "uint256",
          "name": "evaluacion",
          "type": "uint256"
        },
        {
          "internalType": "enum Asignatura.TipoNota",
          "name": "tipo",
          "type": "uint8"
        },
        {
          "internalType": "uint256",
          "name": "calificacion",
          "type": "uint256"
        }
      ],
      "name": "califica",
      "outputs": [],
      "stateMutability": "nonpayable",
      "type": "function"
    },
    {
      "inputs": [
        {
          "internalType": "uint256",
          "name": "evaluacion",
          "type": "uint256"
        }
      ],
      "name": "miNota",
      "outputs": [
        {
          "internalType": "enum Asignatura.TipoNota",
          "name": "tipo",
          "type": "uint8"
        },
        {
          "internalType": "uint256",
          "name": "calificacion",
          "type": "uint256"
        }
      ],
      "stateMutability": "view",
      "type": "function",
      "constant": true
    },
    {
      "inputs": [],
      "name": "miNotaFinal",
      "outputs": [
        {
          "internalType": "enum Asignatura.TipoNota",
          "name": "tipo",
          "type": "uint8"
        },
        {
          "internalType": "uint256",
          "name": "calificacion",
          "type": "uint256"
        }
      ],
      "stateMutability": "view",
      "type": "function",
      "constant": true
    },
    {
      "inputs": [
        {
          "internalType": "address",
          "name": "_addr",
          "type": "address"
        }
      ],
      "name": "notaFinal",
      "outputs": [
        {
          "internalType": "enum Asignatura.TipoNota",
          "name": "tipo",
          "type": "uint8"
        },
        {
          "internalType": "uint256",
          "name": "calificacion",
          "type": "uint256"
        }
      ],
      "stateMutability": "view",
      "type": "function",
      "constant": true
    }
  ],
  "bytecode": "0x60806040526040518060400160405280600481526020017f3230323200000000000000000000000000000000000000000000000000000000815250600090816200004a9190620003f3565b503480156200005857600080fd5b50604051620044553803806200445583398181016040528101906200007e91906200063e565b6000825103620000c5576040517f08c379a0000000000000000000000000000000000000000000000000000000008152600401620000bc9062000724565b60405180910390fd5b60008151036200010c576040517f08c379a0000000000000000000000000000000000000000000000000000000008152600401620001039062000796565b60405180910390fd5b81600390816200011d9190620003f3565b5080600490816200012f9190620003f3565b5033600160006101000a81548173ffffffffffffffffffffffffffffffffffffffff021916908373ffffffffffffffffffffffffffffffffffffffff1602179055505050620007b8565b600081519050919050565b7f4e487b7100000000000000000000000000000000000000000000000000000000600052604160045260246000fd5b7f4e487b7100000000000000000000000000000000000000000000000000000000600052602260045260246000fd5b60006002820490506001821680620001fb57607f821691505b602082108103620002115762000210620001b3565b5b50919050565b60008190508160005260206000209050919050565b60006020601f8301049050919050565b600082821b905092915050565b6000600883026200027b7fffffffffffffffffffffffffffffffffffffffffffffffffffffffffffffffff826200023c565b6200028786836200023c565b95508019841693508086168417925050509392505050565b6000819050919050565b6000819050919050565b6000620002d4620002ce620002c8846200029f565b620002a9565b6200029f565b9050919050565b6000819050919050565b620002f083620002b3565b62000308620002ff82620002db565b84845462000249565b825550505050565b600090565b6200031f62000310565b6200032c818484620002e5565b505050565b5b8181101562000354576200034860008262000315565b60018101905062000332565b5050565b601f821115620003a3576200036d8162000217565b62000378846200022c565b8101602085101562000388578190505b620003a062000397856200022c565b83018262000331565b50505b505050565b600082821c905092915050565b6000620003c860001984600802620003a8565b1980831691505092915050565b6000620003e38383620003b5565b9150826002028217905092915050565b620003fe8262000179565b67ffffffffffffffff8111156200041a576200041962000184565b5b620004268254620001e2565b6200043382828562000358565b600060209050601f8311600181146200046b576000841562000456578287015190505b620004628582620003d5565b865550620004d2565b601f1984166200047b8662000217565b60005b82811015620004a5578489015182556001820191506020850194506020810190506200047e565b86831015620004c55784890151620004c1601f891682620003b5565b8355505b6001600288020188555050505b505050505050565b6000604051905090565b600080fd5b600080fd5b600080fd5b600080fd5b6000601f19601f8301169050919050565b6200051482620004f8565b810181811067ffffffffffffffff8211171562000536576200053562000184565b5b80604052505050565b60006200054b620004da565b905062000559828262000509565b919050565b600067ffffffffffffffff8211156200057c576200057b62000184565b5b6200058782620004f8565b9050602081019050919050565b60005b83811015620005b457808201518184015260208101905062000597565b60008484015250505050565b6000620005d7620005d1846200055e565b6200053f565b905082815260208101848484011115620005f657620005f5620004f3565b5b6200060384828562000594565b509392505050565b600082601f830112620006235762000622620004ee565b5b815162000635848260208601620005c0565b91505092915050565b60008060408385031215620006585762000657620004e4565b5b600083015167ffffffffffffffff811115620006795762000678620004e9565b5b62000687858286016200060b565b925050602083015167ffffffffffffffff811115620006ab57620006aa620004e9565b5b620006b9858286016200060b565b9150509250929050565b600082825260208201905092915050565b7f456c206e6f6d627265206e6f20707565646520657374617220766163696f0000600082015250565b60006200070c601e83620006c3565b91506200071982620006d4565b602082019050919050565b600060208201905081810360008301526200073f81620006fd565b9050919050565b7f456c20637572736f206e6f20707565646520657374617220766163696f000000600082015250565b60006200077e601d83620006c3565b91506200078b8262000746565b602082019050919050565b60006020820190508181036000830152620007b1816200076f565b9050919050565b613c8d80620007c86000396000f3fe6080604052600436106101bb5760003560e01c80636bf8aad6116100ec578063d00de47a1161008a578063dab6ff2811610064578063dab6ff28146106bd578063deafcc41146106d4578063df62bede146106ff578063f967f9861461073c576101fb565b8063d00de47a1461062a578063d27c3f3c14610656578063d51b458414610694576101fb565b80639e1d8f4b116100c65780639e1d8f4b1461055a578063bc7b35b214610585578063c7918139146105b0578063c8373750146105ed576101fb565b80636bf8aad6146104c55780637810ff1e146105045780638da5cb5b1461052f576101fb565b8063488cf4f51161015957806354fd4d501161013357806354fd4d50146103f65780635aa4ffe614610421578063641945bf1461045f578063681d4ca61461049c576101fb565b8063488cf4f514610361578063526a8ec61461038c57806353766883146103c9576101fb565b806330322c9b1161019557806330322c9b1461029157806342a6dde2146102ba57806344f7a8cc146102f857806347ba31da14610338576101fb565b8063034856d7146102005780631d2e4d2b1461023d57806322c4e39414610266576101fb565b366101fb576040517f08c379a00000000000000000000000000000000000000000000000000000000081526004016101f2906126b3565b60405180910390fd5b600080fd5b34801561020c57600080fd5b5061022760048036038101906102229190612863565b610767565b60405161023491906128f5565b60405180910390f35b34801561024957600080fd5b50610264600480360381019061025f919061296e565b61092b565b005b34801561027257600080fd5b5061027b610b91565b60405161028891906129e5565b60405180910390f35b34801561029d57600080fd5b506102b860048036038101906102b39190612a25565b610ba4565b005b3480156102c657600080fd5b506102e160048036038101906102dc9190612a8c565b610e99565b6040516102ef929190612b43565b60405180910390f35b34801561030457600080fd5b5061031f600480360381019061031a9190612b6c565b610ed7565b60405161032f9493929190612c07565b60405180910390f35b34801561034457600080fd5b5061035f600480360381019061035a9190612c53565b610f9f565b005b34801561036d57600080fd5b506103766110da565b60405161038391906128f5565b60405180910390f35b34801561039857600080fd5b506103b360048036038101906103ae9190612d0e565b6110e7565b6040516103c09190612d66565b60405180910390f35b3480156103d557600080fd5b506103de611130565b6040516103ed93929190612d81565b60405180910390f35b34801561040257600080fd5b5061040b61139c565b6040516104189190612dcd565b60405180910390f35b34801561042d57600080fd5b5061044860048036038101906104439190612def565b61142a565b604051610456929190612b43565b60405180910390f35b34801561046b57600080fd5b5061048660048036038101906104819190612def565b6114cf565b6040516104939190612dcd565b60405180910390f35b3480156104a857600080fd5b506104c360048036038101906104be9190612e1c565b61156f565b005b3480156104d157600080fd5b506104ec60048036038101906104e79190612def565b611619565b6040516104fb93929190612d81565b60405180910390f35b34801561051057600080fd5b506105196117db565b6040516105269190612d66565b60405180910390f35b34801561053b57600080fd5b50610544611801565b6040516105519190612d66565b60405180910390f35b34801561056657600080fd5b5061056f611827565b60405161057c91906128f5565b60405180910390f35b34801561059157600080fd5b5061059a611834565b6040516105a79190612dcd565b60405180910390f35b3480156105bc57600080fd5b506105d760048036038101906105d29190612b6c565b6118c2565b6040516105e49190612d66565b60405180910390f35b3480156105f957600080fd5b50610614600480360381019061060f9190612b6c565b611901565b6040516106219190612d66565b60405180910390f35b34801561063657600080fd5b5061063f611940565b60405161064d929190612b43565b60405180910390f35b34801561066257600080fd5b5061067d60048036038101906106789190612b6c565b61199c565b60405161068b929190612b43565b60405180910390f35b3480156106a057600080fd5b506106bb60048036038101906106b69190612def565b611ae6565b005b3480156106c957600080fd5b506106d2611c0a565b005b3480156106e057600080fd5b506106e9611cb7565b6040516106f69190612dcd565b60405180910390f35b34801561070b57600080fd5b5061072660048036038101906107219190612ec3565b611d45565b60405161073391906128f5565b60405180910390f35b34801561074857600080fd5b50610751611f02565b60405161075e91906128f5565b60405180910390f35b6000600260009054906101000a900473ffffffffffffffffffffffffffffffffffffffff1673ffffffffffffffffffffffffffffffffffffffff163373ffffffffffffffffffffffffffffffffffffffff16146107f9576040517f08c379a00000000000000000000000000000000000000000000000000000000081526004016107f090612fa6565b60405180910390fd5b600560009054906101000a900460ff1615610849576040517f08c379a000000000000000000000000000000000000000000000000000000000815260040161084090613038565b60405180910390fd5b600085510361088d576040517f08c379a0000000000000000000000000000000000000000000000000000000008152600401610884906130ca565b60405180910390fd5b600b604051806080016040528087815260200186815260200185815260200184815250908060018154018082558091505060019003906000526020600020906004020160009091909190915060008201518160000190816108ee91906132f6565b5060208201518160010155604082015181600201556060820151816003015550506001600b8054905061092191906133f7565b9050949350505050565b600160009054906101000a900473ffffffffffffffffffffffffffffffffffffffff1673ffffffffffffffffffffffffffffffffffffffff163373ffffffffffffffffffffffffffffffffffffffff16146109bb576040517f08c379a00000000000000000000000000000000000000000000000000000000081526004016109b290613477565b60405180910390fd5b600560009054906101000a900460ff1615610a0b576040517f08c379a0000000000000000000000000000000000000000000000000000000008152600401610a0290613038565b60405180910390fd5b6000600660008473ffffffffffffffffffffffffffffffffffffffff1673ffffffffffffffffffffffffffffffffffffffff1681526020019081526020016000208054610a5790613119565b905014610a99576040517f08c379a0000000000000000000000000000000000000000000000000000000008152600401610a9090613509565b60405180910390fd5b6000815103610add576040517f08c379a0000000000000000000000000000000000000000000000000000000008152600401610ad49061359b565b60405180910390fd5b80600660008473ffffffffffffffffffffffffffffffffffffffff1673ffffffffffffffffffffffffffffffffffffffff1681526020019081526020016000209081610b2991906132f6565b506007829080600181540180825580915050600190039060005260206000200160009091909190916101000a81548173ffffffffffffffffffffffffffffffffffffffff021916908373ffffffffffffffffffffffffffffffffffffffff1602179055505050565b600560009054906101000a900460ff1681565b600560009054906101000a900460ff1615610bf4576040517f08c379a0000000000000000000000000000000000000000000000000000000008152600401610beb90613038565b60405180910390fd5b6000600660003373ffffffffffffffffffffffffffffffffffffffff1673ffffffffffffffffffffffffffffffffffffffff1681526020019081526020016000208054610c4090613119565b80601f0160208091040260200160405190810160405280929190818152602001828054610c6c90613119565b8015610cb95780601f10610c8e57610100808354040283529160200191610cb9565b820191906000526020600020905b815481529060010190602001808311610c9c57829003601f168201915b505050505090506000815103610d04576040517f08c379a0000000000000000000000000000000000000000000000000000000008152600401610cfb90613607565b60405180910390fd5b610d0d85611f0f565b610d4c576040517f08c379a0000000000000000000000000000000000000000000000000000000008152600401610d4390613699565b60405180910390fd5b600b805490508410610d93576040517f08c379a0000000000000000000000000000000000000000000000000000000008152600401610d8a9061372b565b60405180910390fd5b6103e8821115610dd8576040517f08c379a0000000000000000000000000000000000000000000000000000000008152600401610dcf906137bd565b60405180910390fd5b60006040518060400160405280856002811115610df857610df7612acc565b5b815260200184815250905080600c60008873ffffffffffffffffffffffffffffffffffffffff1673ffffffffffffffffffffffffffffffffffffffff168152602001908152602001600020600087815260200190815260200160002060008201518160000160006101000a81548160ff02191690836002811115610e7f57610e7e612acc565b5b021790555060208201518160010155905050505050505050565b600c602052816000526040600020602052806000526040600020600091509150508060000160009054906101000a900460ff16908060010154905082565b600b8181548110610ee757600080fd5b9060005260206000209060040201600091509050806000018054610f0a90613119565b80601f0160208091040260200160405190810160405280929190818152602001828054610f3690613119565b8015610f835780601f10610f5857610100808354040283529160200191610f83565b820191906000526020600020905b815481529060010190602001808311610f6657829003601f168201915b5050505050908060010154908060020154908060030154905084565b600160009054906101000a900473ffffffffffffffffffffffffffffffffffffffff1673ffffffffffffffffffffffffffffffffffffffff163373ffffffffffffffffffffffffffffffffffffffff161461102f576040517f08c379a000000000000000000000000000000000000000000000000000000000815260040161102690613477565b60405180910390fd5b61103833611f0f565b15611078576040517f08c379a000000000000000000000000000000000000000000000000000000000815260040161106f9061384f565b60405180910390fd5b600560009054906101000a900460ff16156110c8576040517f08c379a00000000000000000000000000000000000000000000000000000000081526004016110bf90613038565b60405180910390fd5b6110d484848484611ff3565b50505050565b6000600b80549050905090565b6009818051602081018201805184825260208301602085012081835280955050505050506000915054906101000a900473ffffffffffffffffffffffffffffffffffffffff1681565b606080606061113e33611f0f565b61117d576040517f08c379a0000000000000000000000000000000000000000000000000000000008152600401611174906138e1565b60405180910390fd5b6000600860003373ffffffffffffffffffffffffffffffffffffffff1673ffffffffffffffffffffffffffffffffffffffff1681526020019081526020016000206040518060600160405290816000820180546111d990613119565b80601f016020809104026020016040519081016040528092919081815260200182805461120590613119565b80156112525780601f1061122757610100808354040283529160200191611252565b820191906000526020600020905b81548152906001019060200180831161123557829003601f168201915b5050505050815260200160018201805461126b90613119565b80601f016020809104026020016040519081016040528092919081815260200182805461129790613119565b80156112e45780601f106112b9576101008083540402835291602001916112e4565b820191906000526020600020905b8154815290600101906020018083116112c757829003601f168201915b505050505081526020016002820180546112fd90613119565b80601f016020809104026020016040519081016040528092919081815260200182805461132990613119565b80156113765780601f1061134b57610100808354040283529160200191611376565b820191906000526020600020905b81548152906001019060200180831161135957829003601f168201915b505050505081525050905080600001519350806020015192508060400151915050909192565b600080546113a990613119565b80601f01602080910402602001604051908101604052809291908181526020018280546113d590613119565b80156114225780601f106113f757610100808354040283529160200191611422565b820191906000526020600020905b81548152906001019060200180831161140557829003601f168201915b505050505081565b600080600260009054906101000a900473ffffffffffffffffffffffffffffffffffffffff1673ffffffffffffffffffffffffffffffffffffffff163373ffffffffffffffffffffffffffffffffffffffff16146114bd576040517f08c379a00000000000000000000000000000000000000000000000000000000081526004016114b490612fa6565b60405180910390fd5b6114c68361232e565b91509150915091565b600660205280600052604060002060009150905080546114ee90613119565b80601f016020809104026020016040519081016040528092919081815260200182805461151a90613119565b80156115675780601f1061153c57610100808354040283529160200191611567565b820191906000526020600020905b81548152906001019060200180831161154a57829003601f168201915b505050505081565b61157833611f0f565b156115b8576040517f08c379a00000000000000000000000000000000000000000000000000000000081526004016115af9061384f565b60405180910390fd5b600560009054906101000a900460ff1615611608576040517f08c379a00000000000000000000000000000000000000000000000000000000081526004016115ff90613038565b60405180910390fd5b61161433848484611ff3565b505050565b600860205280600052604060002060009150905080600001805461163c90613119565b80601f016020809104026020016040519081016040528092919081815260200182805461166890613119565b80156116b55780601f1061168a576101008083540402835291602001916116b5565b820191906000526020600020905b81548152906001019060200180831161169857829003601f168201915b5050505050908060010180546116ca90613119565b80601f01602080910402602001604051908101604052809291908181526020018280546116f690613119565b80156117435780601f1061171857610100808354040283529160200191611743565b820191906000526020600020905b81548152906001019060200180831161172657829003601f168201915b50505050509080600201805461175890613119565b80601f016020809104026020016040519081016040528092919081815260200182805461178490613119565b80156117d15780601f106117a6576101008083540402835291602001916117d1565b820191906000526020600020905b8154815290600101906020018083116117b457829003601f168201915b5050505050905083565b600260009054906101000a900473ffffffffffffffffffffffffffffffffffffffff1681565b600160009054906101000a900473ffffffffffffffffffffffffffffffffffffffff1681565b6000600a80549050905090565b6003805461184190613119565b80601f016020809104026020016040519081016040528092919081815260200182805461186d90613119565b80156118ba5780601f1061188f576101008083540402835291602001916118ba565b820191906000526020600020905b81548152906001019060200180831161189d57829003601f168201915b505050505081565b600a81815481106118d257600080fd5b906000526020600020016000915054906101000a900473ffffffffffffffffffffffffffffffffffffffff1681565b6007818154811061191157600080fd5b906000526020600020016000915054906101000a900473ffffffffffffffffffffffffffffffffffffffff1681565b60008061194c33611f0f565b61198b576040517f08c379a0000000000000000000000000000000000000000000000000000000008152600401611982906138e1565b60405180910390fd5b6119943361232e565b915091509091565b6000806119a833611f0f565b6119e7576040517f08c379a00000000000000000000000000000000000000000000000000000000081526004016119de906138e1565b60405180910390fd5b600b805490508310611a2e576040517f08c379a0000000000000000000000000000000000000000000000000000000008152600401611a2590613973565b60405180910390fd5b6000600c60003373ffffffffffffffffffffffffffffffffffffffff1673ffffffffffffffffffffffffffffffffffffffff16815260200190815260200160002060008581526020019081526020016000206040518060400160405290816000820160009054906101000a900460ff166002811115611ab057611aaf612acc565b5b6002811115611ac257611ac1612acc565b5b81526020016001820154815250509050806000015192508060200151915050915091565b600160009054906101000a900473ffffffffffffffffffffffffffffffffffffffff1673ffffffffffffffffffffffffffffffffffffffff163373ffffffffffffffffffffffffffffffffffffffff1614611b76576040517f08c379a0000000000000000000000000000000000000000000000000000000008152600401611b6d90613477565b60405180910390fd5b600560009054906101000a900460ff1615611bc6576040517f08c379a0000000000000000000000000000000000000000000000000000000008152600401611bbd90613038565b60405180910390fd5b80600260006101000a81548173ffffffffffffffffffffffffffffffffffffffff021916908373ffffffffffffffffffffffffffffffffffffffff16021790555050565b600260009054906101000a900473ffffffffffffffffffffffffffffffffffffffff1673ffffffffffffffffffffffffffffffffffffffff163373ffffffffffffffffffffffffffffffffffffffff1614611c9a576040517f08c379a0000000000000000000000000000000000000000000000000000000008152600401611c9190612fa6565b60405180910390fd5b6001600560006101000a81548160ff021916908315150217905550565b60048054611cc490613119565b80601f0160208091040260200160405190810160405280929190818152602001828054611cf090613119565b8015611d3d5780601f10611d1257610100808354040283529160200191611d3d565b820191906000526020600020905b815481529060010190602001808311611d2057829003601f168201915b505050505081565b6000600260009054906101000a900473ffffffffffffffffffffffffffffffffffffffff1673ffffffffffffffffffffffffffffffffffffffff163373ffffffffffffffffffffffffffffffffffffffff1614611dd7576040517f08c379a0000000000000000000000000000000000000000000000000000000008152600401611dce90612fa6565b60405180910390fd5b600560009054906101000a900460ff1615611e27576040517f08c379a0000000000000000000000000000000000000000000000000000000008152600401611e1e90613038565b60405180910390fd5b6000855103611e6b576040517f08c379a0000000000000000000000000000000000000000000000000000000008152600401611e62906130ca565b60405180910390fd5b604051806080016040528086815260200185815260200184815260200183815250600b8781548110611ea057611e9f613993565b5b90600052602060002090600402016000820151816000019081611ec391906132f6565b506020820151816001015560408201518160020155606082015181600301559050506001600b80549050611ef791906133f7565b905095945050505050565b6000600780549050905090565b600080600860008473ffffffffffffffffffffffffffffffffffffffff1673ffffffffffffffffffffffffffffffffffffffff1681526020019081526020016000206000018054611f5f90613119565b80601f0160208091040260200160405190810160405280929190818152602001828054611f8b90613119565b8015611fd85780601f10611fad57610100808354040283529160200191611fd8565b820191906000526020600020905b815481529060010190602001808311611fbb57829003601f168201915b50505050509050600081905060008151141592505050919050565b611ffc33611f0f565b1561203c576040517f08c379a00000000000000000000000000000000000000000000000000000000081526004016120339061384f565b60405180910390fd5b600560009054906101000a900460ff161561208c576040517f08c379a000000000000000000000000000000000000000000000000000000000815260040161208390613038565b60405180910390fd5b60008351036120d0576040517f08c379a00000000000000000000000000000000000000000000000000000000081526004016120c790613a34565b60405180910390fd5b6000825103612114576040517f08c379a000000000000000000000000000000000000000000000000000000000815260040161210b90613ac6565b60405180910390fd5b600073ffffffffffffffffffffffffffffffffffffffff1660098360405161213c9190613b22565b908152602001604051809103902060009054906101000a900473ffffffffffffffffffffffffffffffffffffffff1673ffffffffffffffffffffffffffffffffffffffff16146121c357816040517f96ac92d10000000000000000000000000000000000000000000000000000000081526004016121ba9190612dcd565b60405180910390fd5b6000604051806060016040528085815260200184815260200183815250905080600860008773ffffffffffffffffffffffffffffffffffffffff1673ffffffffffffffffffffffffffffffffffffffff168152602001908152602001600020600082015181600001908161223791906132f6565b50602082015181600101908161224d91906132f6565b50604082015181600201908161226391906132f6565b50905050846009846040516122789190613b22565b908152602001604051809103902060006101000a81548173ffffffffffffffffffffffffffffffffffffffff021916908373ffffffffffffffffffffffffffffffffffffffff160217905550600a859080600181540180825580915050600190039060005260206000200160009091909190916101000a81548173ffffffffffffffffffffffffffffffffffffffff021916908373ffffffffffffffffffffffffffffffffffffffff1602179055505050505050565b6000806001915060005b600b80549050811015612486576000600281111561235957612358612acc565b5b600c60008673ffffffffffffffffffffffffffffffffffffffff1673ffffffffffffffffffffffffffffffffffffffff168152602001908152602001600020600083815260200190815260200160002060000160009054906101000a900460ff1660028111156123cc576123cb612acc565b5b036123de57600080925092505061262b565b6002808111156123f1576123f0612acc565b5b600c60008673ffffffffffffffffffffffffffffffffffffffff1673ffffffffffffffffffffffffffffffffffffffff168152602001908152602001600020600083815260200190815260200160002060000160009054906101000a900460ff16600281111561246457612463612acc565b5b036124725760029250612473565b5b808061247e90613b39565b915050612338565b506001600281111561249b5761249a612acc565b5b8260028111156124ae576124ad612acc565b5b036124bf578160009150915061262b565b60008060005b600b8054905081101561260757600b81815481106124e6576124e5613993565b5b906000526020600020906004020160030154600c60008873ffffffffffffffffffffffffffffffffffffffff1673ffffffffffffffffffffffffffffffffffffffff168152602001908152602001600020600083815260200190815260200160002060010154101561255757600192505b6064600b828154811061256d5761256c613993565b5b906000526020600020906004020160020154600c60008973ffffffffffffffffffffffffffffffffffffffff1673ffffffffffffffffffffffffffffffffffffffff1681526020019081526020016000206000848152602001908152602001600020600101546125dd9190613b81565b6125e79190613bf2565b826125f29190613c23565b915080806125ff90613b39565b9150506124c5565b5081801561261657506101f381115b15612621576101f390505b6002935080925050505b915091565b600082825260208201905092915050565b7f4573746520636f6e747261746f206e6f206163657074612067657374696f6e6560008201527f7320636f6e2064696e65726f0000000000000000000000000000000000000000602082015250565b600061269d602c83612630565b91506126a882612641565b604082019050919050565b600060208201905081810360008301526126cc81612690565b9050919050565b6000604051905090565b600080fd5b600080fd5b600080fd5b600080fd5b6000601f19601f8301169050919050565b7f4e487b7100000000000000000000000000000000000000000000000000000000600052604160045260246000fd5b61273a826126f1565b810181811067ffffffffffffffff8211171561275957612758612702565b5b80604052505050565b600061276c6126d3565b90506127788282612731565b919050565b600067ffffffffffffffff82111561279857612797612702565b5b6127a1826126f1565b9050602081019050919050565b82818337600083830152505050565b60006127d06127cb8461277d565b612762565b9050828152602081018484840111156127ec576127eb6126ec565b5b6127f78482856127ae565b509392505050565b600082601f830112612814576128136126e7565b5b81356128248482602086016127bd565b91505092915050565b6000819050919050565b6128408161282d565b811461284b57600080fd5b50565b60008135905061285d81612837565b92915050565b6000806000806080858703121561287d5761287c6126dd565b5b600085013567ffffffffffffffff81111561289b5761289a6126e2565b5b6128a7878288016127ff565b94505060206128b88782880161284e565b93505060406128c98782880161284e565b92505060606128da8782880161284e565b91505092959194509250565b6128ef8161282d565b82525050565b600060208201905061290a60008301846128e6565b92915050565b600073ffffffffffffffffffffffffffffffffffffffff82169050919050565b600061293b82612910565b9050919050565b61294b81612930565b811461295657600080fd5b50565b60008135905061296881612942565b92915050565b60008060408385031215612985576129846126dd565b5b600061299385828601612959565b925050602083013567ffffffffffffffff8111156129b4576129b36126e2565b5b6129c0858286016127ff565b9150509250929050565b60008115159050919050565b6129df816129ca565b82525050565b60006020820190506129fa60008301846129d6565b92915050565b60038110612a0d57600080fd5b50565b600081359050612a1f81612a00565b92915050565b60008060008060808587031215612a3f57612a3e6126dd565b5b6000612a4d87828801612959565b9450506020612a5e8782880161284e565b9350506040612a6f87828801612a10565b9250506060612a808782880161284e565b91505092959194509250565b60008060408385031215612aa357612aa26126dd565b5b6000612ab185828601612959565b9250506020612ac28582860161284e565b9150509250929050565b7f4e487b7100000000000000000000000000000000000000000000000000000000600052602160045260246000fd5b60038110612b0c57612b0b612acc565b5b50565b6000819050612b1d82612afb565b919050565b6000612b2d82612b0f565b9050919050565b612b3d81612b22565b82525050565b6000604082019050612b586000830185612b34565b612b6560208301846128e6565b9392505050565b600060208284031215612b8257612b816126dd565b5b6000612b908482850161284e565b91505092915050565b600081519050919050565b60005b83811015612bc2578082015181840152602081019050612ba7565b60008484015250505050565b6000612bd982612b99565b612be38185612630565b9350612bf3818560208601612ba4565b612bfc816126f1565b840191505092915050565b60006080820190508181036000830152612c218187612bce565b9050612c3060208301866128e6565b612c3d60408301856128e6565b612c4a60608301846128e6565b95945050505050565b60008060008060808587031215612c6d57612c6c6126dd565b5b6000612c7b87828801612959565b945050602085013567ffffffffffffffff811115612c9c57612c9b6126e2565b5b612ca8878288016127ff565b935050604085013567ffffffffffffffff811115612cc957612cc86126e2565b5b612cd5878288016127ff565b925050606085013567ffffffffffffffff811115612cf657612cf56126e2565b5b612d02878288016127ff565b91505092959194509250565b600060208284031215612d2457612d236126dd565b5b600082013567ffffffffffffffff811115612d4257612d416126e2565b5b612d4e848285016127ff565b91505092915050565b612d6081612930565b82525050565b6000602082019050612d7b6000830184612d57565b92915050565b60006060820190508181036000830152612d9b8186612bce565b90508181036020830152612daf8185612bce565b90508181036040830152612dc38184612bce565b9050949350505050565b60006020820190508181036000830152612de78184612bce565b905092915050565b600060208284031215612e0557612e046126dd565b5b6000612e1384828501612959565b91505092915050565b600080600060608486031215612e3557612e346126dd565b5b600084013567ffffffffffffffff811115612e5357612e526126e2565b5b612e5f868287016127ff565b935050602084013567ffffffffffffffff811115612e8057612e7f6126e2565b5b612e8c868287016127ff565b925050604084013567ffffffffffffffff811115612ead57612eac6126e2565b5b612eb9868287016127ff565b9150509250925092565b600080600080600060a08688031215612edf57612ede6126dd565b5b6000612eed8882890161284e565b955050602086013567ffffffffffffffff811115612f0e57612f0d6126e2565b5b612f1a888289016127ff565b9450506040612f2b8882890161284e565b9350506060612f3c8882890161284e565b9250506080612f4d8882890161284e565b9150509295509295909350565b7f536f6c6f207065726d697469646f20616c20636f6f7264696e61646f72000000600082015250565b6000612f90601d83612630565b9150612f9b82612f5a565b602082019050919050565b60006020820190508181036000830152612fbf81612f83565b9050919050565b7f536f6c6f207065726d697469646f207369206c6120617369676e61747572612060008201527f6e6f206573746120636572726164610000000000000000000000000000000000602082015250565b6000613022602f83612630565b915061302d82612fc6565b604082019050919050565b6000602082019050818103600083015261305181613015565b9050919050565b7f456c206e6f6d627265206465206c61206576616c756163696f6e206e6f20707560008201527f6564652073657220766163696f00000000000000000000000000000000000000602082015250565b60006130b4602d83612630565b91506130bf82613058565b604082019050919050565b600060208201905081810360008301526130e3816130a7565b9050919050565b7f4e487b7100000000000000000000000000000000000000000000000000000000600052602260045260246000fd5b6000600282049050600182168061313157607f821691505b602082108103613144576131436130ea565b5b50919050565b60008190508160005260206000209050919050565b60006020601f8301049050919050565b600082821b905092915050565b6000600883026131ac7fffffffffffffffffffffffffffffffffffffffffffffffffffffffffffffffff8261316f565b6131b6868361316f565b95508019841693508086168417925050509392505050565b6000819050919050565b60006131f36131ee6131e98461282d565b6131ce565b61282d565b9050919050565b6000819050919050565b61320d836131d8565b613221613219826131fa565b84845461317c565b825550505050565b600090565b613236613229565b613241818484613204565b505050565b5b818110156132655761325a60008261322e565b600181019050613247565b5050565b601f8211156132aa5761327b8161314a565b6132848461315f565b81016020851015613293578190505b6132a761329f8561315f565b830182613246565b50505b505050565b600082821c905092915050565b60006132cd600019846008026132af565b1980831691505092915050565b60006132e683836132bc565b9150826002028217905092915050565b6132ff82612b99565b67ffffffffffffffff81111561331857613317612702565b5b6133228254613119565b61332d828285613269565b600060209050601f831160018114613360576000841561334e578287015190505b61335885826132da565b8655506133c0565b601f19841661336e8661314a565b60005b8281101561339657848901518255600182019150602085019450602081019050613371565b868310156133b357848901516133af601f8916826132bc565b8355505b6001600288020188555050505b505050505050565b7f4e487b7100000000000000000000000000000000000000000000000000000000600052601160045260246000fd5b60006134028261282d565b915061340d8361282d565b9250828203905081811115613425576134246133c8565b5b92915050565b7f536f6c6f207065726d697469646f20616c206f776e6572000000000000000000600082015250565b6000613461601783612630565b915061346c8261342b565b602082019050919050565b6000602082019050818103600083015261349081613454565b9050919050565b7f456c2070726f6665736f72207961206861207369646f20616e616469646f206360008201527f6f6d6f2070726f6665736f720000000000000000000000000000000000000000602082015250565b60006134f3602c83612630565b91506134fe82613497565b604082019050919050565b60006020820190508181036000830152613522816134e6565b9050919050565b7f456c206e6f6d6272652064656c2070726f6665736f72206e6f2070756564652060008201527f73657220766163696f0000000000000000000000000000000000000000000000602082015250565b6000613585602983612630565b915061359082613529565b604082019050919050565b600060208201905081810360008301526135b481613578565b9050919050565b7f536f6c6f207065726d697469646f206120756e2070726f6665736f7200000000600082015250565b60006135f1601c83612630565b91506135fc826135bb565b602082019050919050565b60006020820190508181036000830152613620816135e4565b9050919050565b7f536f6c6f2073652070756564652063616c696669636172206120756e20616c7560008201527f6d6e6f206d6174726963756c61646f0000000000000000000000000000000000602082015250565b6000613683602f83612630565b915061368e82613627565b604082019050919050565b600060208201905081810360008301526136b281613676565b9050919050565b7f4e6f2073652070756564652063616c69666963617220756e61206576616c756160008201527f63696f6e20717565206e6f206578697374650000000000000000000000000000602082015250565b6000613715603283612630565b9150613720826136b9565b604082019050919050565b6000602082019050818103600083015261374481613708565b9050919050565b7f4e6f2073652070756564652063616c69666963617220636f6e20756e61206e6f60008201527f7461206d61796f722061206c61207065726d6974696461000000000000000000602082015250565b60006137a7603783612630565b91506137b28261374b565b604082019050919050565b600060208201905081810360008301526137d68161379a565b9050919050565b7f536f6c6f207065726d697469646f206120616c756d6e6f73206e6f206d61747260008201527f6963756c61646f73000000000000000000000000000000000000000000000000602082015250565b6000613839602883612630565b9150613844826137dd565b604082019050919050565b600060208201905081810360008301526138688161382c565b9050919050565b7f536f6c6f207065726d697469646f206120616c756d6e6f73206d61747269637560008201527f6c61646f73000000000000000000000000000000000000000000000000000000602082015250565b60006138cb602583612630565b91506138d68261386f565b604082019050919050565b600060208201905081810360008301526138fa816138be565b9050919050565b7f456c20696e64696365206465206c61206576616c756163696f6e206e6f20657860008201527f6973746500000000000000000000000000000000000000000000000000000000602082015250565b600061395d602483612630565b915061396882613901565b604082019050919050565b6000602082019050818103600083015261398c81613950565b9050919050565b7f4e487b7100000000000000000000000000000000000000000000000000000000600052603260045260246000fd5b7f456c206e6f6d6272652064656c20616c756d6e6f206e6f20707565646520657360008201527f74617220766163696f0000000000000000000000000000000000000000000000602082015250565b6000613a1e602983612630565b9150613a29826139c2565b604082019050919050565b60006020820190508181036000830152613a4d81613a11565b9050919050565b7f456c20444e492064656c20616c756d6e6f206e6f20707565646520657374617260008201527f20766163696f0000000000000000000000000000000000000000000000000000602082015250565b6000613ab0602683612630565b9150613abb82613a54565b604082019050919050565b60006020820190508181036000830152613adf81613aa3565b9050919050565b600081905092915050565b6000613afc82612b99565b613b068185613ae6565b9350613b16818560208601612ba4565b80840191505092915050565b6000613b2e8284613af1565b915081905092915050565b6000613b448261282d565b91507fffffffffffffffffffffffffffffffffffffffffffffffffffffffffffffffff8203613b7657613b756133c8565b5b600182019050919050565b6000613b8c8261282d565b9150613b978361282d565b9250828202613ba58161282d565b91508282048414831517613bbc57613bbb6133c8565b5b5092915050565b7f4e487b7100000000000000000000000000000000000000000000000000000000600052601260045260246000fd5b6000613bfd8261282d565b9150613c088361282d565b925082613c1857613c17613bc3565b5b828204905092915050565b6000613c2e8261282d565b9150613c398361282d565b9250828201905080821115613c5157613c506133c8565b5b9291505056fea264697066735822122067207ae388e15de8c148213b42e28f9d453e8f85b9f27376f34117a7a06747ca64736f6c63430008110033",
  "immutableReferences": {},
  "source": "// SPDX-License-Identifier: MIT\npragma solidity >=0.4.22 <0.9.0;\n\ncontract Asignatura {\n  \n  string public version = \"2022\";\n  // Address del usuario que ha desplegado el contrato. El contrato lo despliega el owner\n  address public owner;\n  // Coordinador de la asignatura\n  address public coordinador;\n\n  // Nombre de la asignatura\n  string public nombre;\n  // Curso acadmico de la asignatura\n  string public curso;\n  // Estado de la asignatura\n  bool public cerrada;\n  // Acceder al nombre de un profesor dada su direccin\n  mapping (address => string) public datosProfesor;\n  // Array con las direcciones de los profesores aadidos\n  address[] public profesores;\n  // Datos de un alumno\n  struct DatosAlumno {\n      string nombre;\n      string dni;\n      string email;\n  }\n  // Dada una direccin, devuelve una estructura DatosAlumno, cuyo nombre ser 'datosAlumno'\n  mapping (address => DatosAlumno) public datosAlumno;\n  // Valores de DNI usados (clave: DNI, valor: direccin del alumno)\n  mapping (string => address) public dniUsados;\n  // En este array (pblico) se guardan las direcciones de usuario de los alumnos matriculados\n  address[] public matriculas;\n  // Datos de una evaluacin\n  struct Evaluacion {\n      string nombre;\n      uint fecha;\n      uint porcentaje;\n      uint minimo;\n  }\n  // Array de objetos del tipo Evaluacion con las evaluaciones de la asignatura\n  Evaluacion[] public evaluaciones;\n  // Enumerado que representa el tipo de nota: Sin usar, no presentado y normal\n  enum TipoNota {Empty, NP, Normal}\n  // Datos de una nota. Calificacin multiplicada por 100 porque no hay decimales\n  struct Nota {\n      TipoNota tipo;\n      uint calificacion;\n  }\n  // Dada la direccin de un alumno y el indice de evaluacin, devuelve la nota del alumno\n  mapping (address => mapping (uint => Nota)) public calificaciones;\n  // Error usado para indicar DNI duplicado\n  error DNIDuplicadoError (string dni);\n  // Constructor: @param _nombre Nombre asingatura. @param _curso Curso acadmico.\n  constructor(string memory _nombre, string memory _curso) {\n      // No se ejecuta nada ms si no se cumple lo incluido en 'require'\n      require(bytes(_nombre).length != 0, \"El nombre no puede estar vacio\");\n      require(bytes(_curso).length != 0, \"El curso no puede estar vacio\");\n      nombre = _nombre;\n      curso = _curso;\n      owner = msg.sender;\n  }\n  // Asignar la direccin del usuario coordinador: @param addr Direccin del usuario coordinador\n  function setCoordinador(address addr) soloOwner soloAbierta public {\n    coordinador = addr;\n  }\n  // Cerrar la asignatura\n  function cerrar() soloCoordinador public {\n    cerrada = true;\n  }\n  // Aadir un profesor nuevo (impide que se pueda meter un nombre vaco): @param _addr Direccin del profesor. @param _nombre Nombre del profesor\n  function addProfesor(address _addr, string memory _nombre) soloOwner soloAbierta public {\n    require(bytes(datosProfesor[_addr]).length == 0, \"El profesor ya ha sido anadido como profesor\");\n    require(bytes(_nombre).length != 0, \"El nombre del profesor no puede ser vacio\");\n    datosProfesor[_addr] = _nombre;\n    profesores.push(_addr);\n  }\n  // Nmero de profesores aadidos\n  function profesoresLength() public view returns(uint) {\n    return profesores.length;\n  }\n  // Funcion para que puedan matricularse los alumnos (impedir nombre o dni vacios) Se aade el dni en este caso con respecto a la otra practica\n  function automatricula (string memory _nombre, string memory _dni, string memory _email) soloNoMatriculados soloAbierta public {\n    _matricular(msg.sender, _nombre, _dni, _email);\n  }\n  // El owner puede matricular alumnos (impedir nombre o dni vacios y dni debe ser unico)\n  function matricular (address _addr, string memory _nombre, string memory _dni, string memory _email) soloOwner soloNoMatriculados soloAbierta public {\n    _matricular(_addr, _nombre, _dni, _email);\n  }\n\n  function _matricular(address _addr, string memory _nombre, string memory _dni, string memory _email) soloNoMatriculados soloAbierta private {\n    require(bytes(_nombre).length != 0, \"El nombre del alumno no puede estar vacio\");\n    require(bytes(_dni).length != 0, \"El DNI del alumno no puede estar vacio\");\n    if (dniUsados[_dni] != address(0x0)) {\n      revert DNIDuplicadoError({dni: _dni});\n    }\n    DatosAlumno memory datos = DatosAlumno(_nombre, _dni, _email); // Creo un objeto temporal de tipo DatosAlumno\n    datosAlumno[_addr] = datos; // Para este usuario, me guardo sus datos en el array\n    dniUsados[_dni] = _addr;\n    matriculas.push(_addr);\n  }\n  // Devuelve el nmero de alumnos matriculados\n  function matriculasLength() public view returns(uint) {\n      return matriculas.length;\n  }\n  // Permite a un alumno obtener sus propios datos\n  function quienSoy() soloMatriculados public view returns(string memory _nombre, string memory _dni, string memory _email) {\n      DatosAlumno memory datos = datosAlumno[msg.sender];\n      _nombre = datos.nombre;\n      _dni = datos.dni;\n      _email = datos.email;\n  }\n  // Crea una prueba de evaluacin de una asignatura, recibe 3 parametros y devuelve la posicin en el array evaluaciones\n  function creaEvaluacion(string memory _nombre, uint _fecha, uint _porcentaje, uint _minimo) soloCoordinador soloAbierta public returns(uint) {\n      require(bytes(_nombre).length != 0, \"El nombre de la evaluacion no puede ser vacio\");\n      evaluaciones.push(Evaluacion(_nombre, _fecha, _porcentaje, _minimo));\n      return evaluaciones.length -1;\n  }\n  // Edita una prueba de evaluacin de una asignatura existente, recibe 4 parametros (anteriores ms ndice a modificar) y devuelve la posicin en el array evaluaciones\n  function editaEvaluacion(uint _index, string memory _nombre, uint _fecha, uint _porcentaje, uint _minimo) soloCoordinador soloAbierta public returns(uint) {\n      require(bytes(_nombre).length != 0, \"El nombre de la evaluacion no puede ser vacio\");\n      evaluaciones[_index] = Evaluacion(_nombre, _fecha, _porcentaje, _minimo);\n      return evaluaciones.length -1;\n  }\n  // Devuelve el nmero de evaluaciones creadas\n  function evaluacionesLength() public view returns(uint) {\n      return evaluaciones.length;\n  }\n\n  function califica(address alumno, uint evaluacion, TipoNota tipo, uint calificacion) soloAbierta soloProfesor public {\n    require(estaMatriculado(alumno), \"Solo se puede calificar a un alumno matriculado\");\n    require(evaluacion < evaluaciones.length, \"No se puede calificar una evaluacion que no existe\");\n    require(calificacion <= 1000, \"No se puede calificar con una nota mayor a la permitida\");\n    Nota memory nota = Nota(tipo, calificacion);\n      \n    calificaciones[alumno][evaluacion] = nota;\n  }\n  // Devuelve el tipo de nota y la calificacion obtenida por el alumno que invoca el metodo en la calificacion pasada como parametro\n  function miNota(uint evaluacion) soloMatriculados public view returns(TipoNota tipo, uint calificacion) {\n      require(evaluacion < evaluaciones.length, \"El indice de la evaluacion no existe\");\n      Nota memory nota = calificaciones[msg.sender][evaluacion];\n      tipo = nota.tipo;\n      calificacion = nota.calificacion;\n  }\n  // Devuelve la nota final del alumno que llama al mtodo\n  function miNotaFinal() soloMatriculados public view returns (TipoNota tipo, uint calificacion) {\n    return _notaFinal(msg.sender);\n  }\n  function notaFinal(address _addr) soloCoordinador public view returns (TipoNota tipo, uint calificacion) {\n    return _notaFinal(_addr);\n  }\n  function _notaFinal(address _addr) private view returns (TipoNota tipo, uint calificacion) {\n    tipo = TipoNota.NP;\n    for (uint i = 0; i < evaluaciones.length; i++) {\n      if (calificaciones[_addr][i].tipo == TipoNota.Empty) {\n        return (TipoNota.Empty, 0);\n      }\n      if (calificaciones[_addr][i].tipo == TipoNota.Normal) {\n        tipo = TipoNota.Normal;\n        continue;\n      }\n    }\n    if (tipo == TipoNota.NP) {\n      return (tipo, 0);\n    }\n    bool suspenso = false;\n    uint nota = 0;\n    for (uint i = 0; i < evaluaciones.length; i++) {\n      if (calificaciones[_addr][i].calificacion < evaluaciones[i].minimo) {\n        suspenso = true;\n      }\n      nota += calificaciones[_addr][i].calificacion * evaluaciones[i].porcentaje / 100;\n    }\n    if (suspenso && nota > 499) {\n      nota = 499;\n    }\n    tipo = TipoNota.Normal;\n    calificacion = nota;\n  }\n  // Consulta si una direccin pertenece a un alumno matriculado\n  function estaMatriculado (address alumno) private view returns(bool) {\n      string memory _nombre = datosAlumno[alumno].nombre;\n      bytes memory b = bytes(_nombre);\n      return b.length != 0;\n  }\n  // Modificador para que la funcin slo la pueda ejecutar el owner (Usada en setCoordinador y addProfesor)\n  modifier soloOwner() {\n    require(msg.sender == owner, \"Solo permitido al owner\");\n    _;\n  }\n  // Modificador para que la funcin slo la pueda ejecutar el coordinador (Usada en cerrar y creaEvaluacion)\n  modifier soloCoordinador() {\n    require(msg.sender == coordinador, \"Solo permitido al coordinador\");\n    _;\n  }\n  // Modificador para que la funcin slo la pueda ejecutar el profesor (Usada en califica)\n  modifier soloProfesor() {\n    string memory _nombre = datosProfesor[msg.sender];\n    require(bytes(_nombre).length != 0, \"Solo permitido a un profesor\");\n    _;\n  }\n  // Modificador para que la funcin slo la pueda ejecutar un alumno matriculado\n  modifier soloMatriculados() {\n    require(estaMatriculado(msg.sender), \"Solo permitido a alumnos matriculados\");\n    _;\n  }\n  // Modificador para que la funcin slo la pueda ejecutar un alumno no matriculado\n  modifier soloNoMatriculados() {\n    require(!estaMatriculado(msg.sender), \"Solo permitido a alumnos no matriculados\");\n    _;\n  }\n  // Modificador para que una funcin solo la pueda ejecutar si la asignatura no esta cerrada (Usado en setCoordinador, addProfesor, automatricula, creaEvaluacion y califica)\n  modifier soloAbierta() {\n    require(!cerrada, \"Solo permitido si la asignatura no esta cerrada\");\n    _;\n  }\n\n  // Impide los pagos y gestiones con dinero en este contrato\n  receive() external payable {\n      revert(\"Este contrato no acepta gestiones con dinero\");\n  }\n}\n\n",
  "sourcePath": "/Users/luis/Desktop/Asignatura/truffle/contracts/Asignatura.sol",
  "compiler": {
    "name": "solc",
    "version": "0.8.17+commit.8df45f5f.Emscripten.clang"
  },
  "schemaVersion": "3.4.11",
  "updatedAt": "2022-12-19T14:33:42.355Z",
  "networkType": "ethereum",
  "devdoc": {
    "kind": "dev",
    "methods": {},
    "version": 1
  },
  "userdoc": {
    "kind": "user",
    "methods": {},
    "version": 1
  }
}